{
  "contractName": "Crowdsale",
  "abi": [
    {
      "constant": true,
      "inputs": [],
      "name": "rate",
      "outputs": [
        {
          "name": "",
          "type": "uint256"
        }
      ],
      "payable": false,
      "stateMutability": "view",
      "type": "function"
    },
    {
      "constant": true,
      "inputs": [],
      "name": "endTime",
      "outputs": [
        {
          "name": "",
          "type": "uint256"
        }
      ],
      "payable": false,
      "stateMutability": "view",
      "type": "function"
    },
    {
      "constant": true,
      "inputs": [],
      "name": "weiRaised",
      "outputs": [
        {
          "name": "",
          "type": "uint256"
        }
      ],
      "payable": false,
      "stateMutability": "view",
      "type": "function"
    },
    {
      "constant": true,
      "inputs": [],
      "name": "wallet",
      "outputs": [
        {
          "name": "",
          "type": "address"
        }
      ],
      "payable": false,
      "stateMutability": "view",
      "type": "function"
    },
    {
      "constant": true,
      "inputs": [],
      "name": "startTime",
      "outputs": [
        {
          "name": "",
          "type": "uint256"
        }
      ],
      "payable": false,
      "stateMutability": "view",
      "type": "function"
    },
    {
      "constant": false,
      "inputs": [
        {
          "name": "beneficiary",
          "type": "address"
        }
      ],
      "name": "buyTokens",
      "outputs": [],
      "payable": true,
      "stateMutability": "payable",
      "type": "function"
    },
    {
      "constant": true,
      "inputs": [],
      "name": "hasEnded",
      "outputs": [
        {
          "name": "",
          "type": "bool"
        }
      ],
      "payable": false,
      "stateMutability": "view",
      "type": "function"
    },
    {
      "constant": true,
      "inputs": [],
      "name": "token",
      "outputs": [
        {
          "name": "",
          "type": "address"
        }
      ],
      "payable": false,
      "stateMutability": "view",
      "type": "function"
    },
    {
      "inputs": [
        {
          "name": "_startTime",
          "type": "uint256"
        },
        {
          "name": "_endTime",
          "type": "uint256"
        },
        {
          "name": "_rate",
          "type": "uint256"
        },
        {
          "name": "_wallet",
          "type": "address"
        }
      ],
      "payable": false,
      "stateMutability": "nonpayable",
      "type": "constructor"
    },
    {
      "payable": true,
      "stateMutability": "payable",
      "type": "fallback"
    },
    {
      "anonymous": false,
      "inputs": [
        {
          "indexed": true,
          "name": "purchaser",
          "type": "address"
        },
        {
          "indexed": true,
          "name": "beneficiary",
          "type": "address"
        },
        {
          "indexed": false,
          "name": "value",
          "type": "uint256"
        },
        {
          "indexed": false,
          "name": "amount",
          "type": "uint256"
        }
      ],
      "name": "TokenPurchase",
      "type": "event"
    }
  ],
  "bytecode": "0x6060604052341561000f57600080fd5b6040516080806139ad8339810160405280805190602001909190805190602001909190805190602001909190805190602001909190505042841015151561005557600080fd5b83831015151561006457600080fd5b60008211151561007357600080fd5b60008173ffffffffffffffffffffffffffffffffffffffff161415151561009957600080fd5b6100b461015264010000000002610484176401000000009004565b6000806101000a81548173ffffffffffffffffffffffffffffffffffffffff021916908373ffffffffffffffffffffffffffffffffffffffff16021790555083600181905550826002819055508160048190555080600360006101000a81548173ffffffffffffffffffffffffffffffffffffffff021916908373ffffffffffffffffffffffffffffffffffffffff16021790555050505050610207565b6000629896806101606101f7565b8082815260200180602001806020018381038352600a8152602001807f566f63616c546f6b656e00000000000000000000000000000000000000000000815250602001838103825260038152602001807f564f4300000000000000000000000000000000000000000000000000000000008152506020019350505050604051809103906000f08015156101f257600080fd5b905090565b6040516119198061209483390190565b611e7e806102166000396000f30060606040526004361061008e576000357c0100000000000000000000000000000000000000000000000000000000900463ffffffff1680632c4e722e146100995780633197cbb6146100c25780634042b66f146100eb578063521eb2731461011457806378e9792514610169578063ec8ac4d814610192578063ecb70fb7146101c0578063fc0c546a146101ed575b61009733610242565b005b34156100a457600080fd5b6100ac61032d565b6040518082815260200191505060405180910390f35b34156100cd57600080fd5b6100d5610333565b6040518082815260200191505060405180910390f35b34156100f657600080fd5b6100fe610339565b6040518082815260200191505060405180910390f35b341561011f57600080fd5b61012761033f565b604051808273ffffffffffffffffffffffffffffffffffffffff1673ffffffffffffffffffffffffffffffffffffffff16815260200191505060405180910390f35b341561017457600080fd5b61017c610365565b6040518082815260200191505060405180910390f35b6101be600480803573ffffffffffffffffffffffffffffffffffffffff16906020019091905050610242565b005b34156101cb57600080fd5b6101d361036b565b604051808215151515815260200191505060405180910390f35b34156101f857600080fd5b610200610377565b604051808273ffffffffffffffffffffffffffffffffffffffff1673ffffffffffffffffffffffffffffffffffffffff16815260200191505060405180910390f35b60008060008373ffffffffffffffffffffffffffffffffffffffff161415151561026b57600080fd5b61027361039c565b151561027e57600080fd5b349150610296600454836103cf90919063ffffffff16565b90506102ad8260055461040290919063ffffffff16565b6005819055508273ffffffffffffffffffffffffffffffffffffffff163373ffffffffffffffffffffffffffffffffffffffff167f623b3804fa71d67900d064613da8f94b9617215ee90799290593e1745087ad188484604051808381526020018281526020019250505060405180910390a3610328610420565b505050565b60045481565b60025481565b60055481565b600360009054906101000a900473ffffffffffffffffffffffffffffffffffffffff1681565b60015481565b60006002544211905090565b6000809054906101000a900473ffffffffffffffffffffffffffffffffffffffff1681565b600080600060015442101580156103b557506002544211155b9150600034141590508180156103c85750805b9250505090565b600080828402905060008414806103f057508284828115156103ed57fe5b04145b15156103f857fe5b8091505092915050565b600080828401905083811015151561041657fe5b8091505092915050565b600360009054906101000a900473ffffffffffffffffffffffffffffffffffffffff1673ffffffffffffffffffffffffffffffffffffffff166108fc349081150290604051600060405180830381858888f19350505050151561048257600080fd5b565b600062989680610492610529565b8082815260200180602001806020018381038352600a8152602001807f566f63616c546f6b656e00000000000000000000000000000000000000000000815250602001838103825260038152602001807f564f4300000000000000000000000000000000000000000000000000000000008152506020019350505050604051809103906000f080151561052457600080fd5b905090565b6040516119198061053a83390190560060606040526012600360006101000a81548160ff021916908360ff16021790555034156200002c57600080fd5b604051620019193803806200191983398101604052808051906020019091908051820191906020018051820191905050828282336000806101000a81548173ffffffffffffffffffffffffffffffffffffffff021916908373ffffffffffffffffffffffffffffffffffffffff160217905550600360009054906101000a900460ff1660ff16600a0a8302600481905550600454600560003373ffffffffffffffffffffffffffffffffffffffff1673ffffffffffffffffffffffffffffffffffffffff1681526020019081526020016000208190555081600190805190602001906200011b92919062000141565b5080600290805190602001906200013492919062000141565b50505050505050620001f0565b828054600181600116156101000203166002900490600052602060002090601f016020900481019282601f106200018457805160ff1916838001178555620001b5565b82800160010185558215620001b5579182015b82811115620001b457825182559160200191906001019062000197565b5b509050620001c49190620001c8565b5090565b620001ed91905b80821115620001e9576000816000905550600101620001cf565b5090565b90565b61171980620002006000396000f300606060405260043610610128576000357c0100000000000000000000000000000000000000000000000000000000900463ffffffff16806305fefda71461012d57806306fdde0314610159578063095ea7b3146101e757806318160ddd1461024157806323b872dd1461026a578063313ce567146102e357806342966c68146103125780634b7503341461034d57806370a082311461037657806379c65068146103c357806379cc6790146104055780638620410b1461045f5780638da5cb5b1461048857806395d89b41146104dd578063a6f2ae3a1461056b578063a9059cbb14610575578063b414d4b6146105b7578063cae9ca5114610608578063dd62ed3e146106a5578063e4849b3214610711578063e724529c14610734578063f2fde38b14610778575b600080fd5b341561013857600080fd5b61015760048080359060200190919080359060200190919050506107b1565b005b341561016457600080fd5b61016c61081e565b6040518080602001828103825283818151815260200191508051906020019080838360005b838110156101ac578082015181840152602081019050610191565b50505050905090810190601f1680156101d95780820380516001836020036101000a031916815260200191505b509250505060405180910390f35b34156101f257600080fd5b610227600480803573ffffffffffffffffffffffffffffffffffffffff169060200190919080359060200190919050506108bc565b604051808215151515815260200191505060405180910390f35b341561024c57600080fd5b610254610949565b6040518082815260200191505060405180910390f35b341561027557600080fd5b6102c9600480803573ffffffffffffffffffffffffffffffffffffffff1690602001909190803573ffffffffffffffffffffffffffffffffffffffff1690602001909190803590602001909190505061094f565b604051808215151515815260200191505060405180910390f35b34156102ee57600080fd5b6102f6610a7c565b604051808260ff1660ff16815260200191505060405180910390f35b341561031d57600080fd5b6103336004808035906020019091905050610a8f565b604051808215151515815260200191505060405180910390f35b341561035857600080fd5b610360610b93565b6040518082815260200191505060405180910390f35b341561038157600080fd5b6103ad600480803573ffffffffffffffffffffffffffffffffffffffff16906020019091905050610b99565b6040518082815260200191505060405180910390f35b34156103ce57600080fd5b610403600480803573ffffffffffffffffffffffffffffffffffffffff16906020019091908035906020019091905050610bb1565b005b341561041057600080fd5b610445600480803573ffffffffffffffffffffffffffffffffffffffff16906020019091908035906020019091905050610d22565b604051808215151515815260200191505060405180910390f35b341561046a57600080fd5b610472610f3c565b6040518082815260200191505060405180910390f35b341561049357600080fd5b61049b610f42565b604051808273ffffffffffffffffffffffffffffffffffffffff1673ffffffffffffffffffffffffffffffffffffffff16815260200191505060405180910390f35b34156104e857600080fd5b6104f0610f67565b6040518080602001828103825283818151815260200191508051906020019080838360005b83811015610530578082015181840152602081019050610515565b50505050905090810190601f16801561055d5780820380516001836020036101000a031916815260200191505b509250505060405180910390f35b610573611005565b005b341561058057600080fd5b6105b5600480803573ffffffffffffffffffffffffffffffffffffffff16906020019091908035906020019091905050611025565b005b34156105c257600080fd5b6105ee600480803573ffffffffffffffffffffffffffffffffffffffff16906020019091905050611034565b604051808215151515815260200191505060405180910390f35b341561061357600080fd5b61068b600480803573ffffffffffffffffffffffffffffffffffffffff1690602001909190803590602001909190803590602001908201803590602001908080601f01602080910402602001604051908101604052809392919081815260200183838082843782019150505050505091905050611054565b604051808215151515815260200191505060405180910390f35b34156106b057600080fd5b6106fb600480803573ffffffffffffffffffffffffffffffffffffffff1690602001909190803573ffffffffffffffffffffffffffffffffffffffff169060200190919050506111d2565b6040518082815260200191505060405180910390f35b341561071c57600080fd5b61073260048080359060200190919050506111f7565b005b341561073f57600080fd5b610776600480803573ffffffffffffffffffffffffffffffffffffffff169060200190919080351515906020019091905050611273565b005b341561078357600080fd5b6107af600480803573ffffffffffffffffffffffffffffffffffffffff16906020019091905050611398565b005b6000809054906101000a900473ffffffffffffffffffffffffffffffffffffffff1673ffffffffffffffffffffffffffffffffffffffff163373ffffffffffffffffffffffffffffffffffffffff1614151561080c57600080fd5b81600781905550806008819055505050565b60018054600181600116156101000203166002900480601f0160208091040260200160405190810160405280929190818152602001828054600181600116156101000203166002900480156108b45780601f10610889576101008083540402835291602001916108b4565b820191906000526020600020905b81548152906001019060200180831161089757829003601f168201915b505050505081565b600081600660003373ffffffffffffffffffffffffffffffffffffffff1673ffffffffffffffffffffffffffffffffffffffff16815260200190815260200160002060008573ffffffffffffffffffffffffffffffffffffffff1673ffffffffffffffffffffffffffffffffffffffff168152602001908152602001600020819055506001905092915050565b60045481565b6000600660008573ffffffffffffffffffffffffffffffffffffffff1673ffffffffffffffffffffffffffffffffffffffff16815260200190815260200160002060003373ffffffffffffffffffffffffffffffffffffffff1673ffffffffffffffffffffffffffffffffffffffff1681526020019081526020016000205482111515156109dc57600080fd5b81600660008673ffffffffffffffffffffffffffffffffffffffff1673ffffffffffffffffffffffffffffffffffffffff16815260200190815260200160002060003373ffffffffffffffffffffffffffffffffffffffff1673ffffffffffffffffffffffffffffffffffffffff16815260200190815260200160002060008282540392505081905550610a71848484611436565b600190509392505050565b600360009054906101000a900460ff1681565b600081600560003373ffffffffffffffffffffffffffffffffffffffff1673ffffffffffffffffffffffffffffffffffffffff1681526020019081526020016000205410151515610adf57600080fd5b81600560003373ffffffffffffffffffffffffffffffffffffffff1673ffffffffffffffffffffffffffffffffffffffff16815260200190815260200160002060008282540392505081905550816004600082825403925050819055503373ffffffffffffffffffffffffffffffffffffffff167fcc16f5dbb4873280815c1ee09dbd06736cffcc184412cf7a71a0fdb75d397ca5836040518082815260200191505060405180910390a260019050919050565b60075481565b60056020528060005260406000206000915090505481565b6000809054906101000a900473ffffffffffffffffffffffffffffffffffffffff1673ffffffffffffffffffffffffffffffffffffffff163373ffffffffffffffffffffffffffffffffffffffff16141515610c0c57600080fd5b80600560008473ffffffffffffffffffffffffffffffffffffffff1673ffffffffffffffffffffffffffffffffffffffff16815260200190815260200160002060008282540192505081905550806004600082825401925050819055503073ffffffffffffffffffffffffffffffffffffffff1660007fddf252ad1be2c89b69c2b068fc378daa952ba7f163c4a11628f55a4df523b3ef836040518082815260200191505060405180910390a38173ffffffffffffffffffffffffffffffffffffffff163073ffffffffffffffffffffffffffffffffffffffff167fddf252ad1be2c89b69c2b068fc378daa952ba7f163c4a11628f55a4df523b3ef836040518082815260200191505060405180910390a35050565b600081600560008573ffffffffffffffffffffffffffffffffffffffff1673ffffffffffffffffffffffffffffffffffffffff1681526020019081526020016000205410151515610d7257600080fd5b600660008473ffffffffffffffffffffffffffffffffffffffff1673ffffffffffffffffffffffffffffffffffffffff16815260200190815260200160002060003373ffffffffffffffffffffffffffffffffffffffff1673ffffffffffffffffffffffffffffffffffffffff168152602001908152602001600020548211151515610dfd57600080fd5b81600560008573ffffffffffffffffffffffffffffffffffffffff1673ffffffffffffffffffffffffffffffffffffffff1681526020019081526020016000206000828254039250508190555081600660008573ffffffffffffffffffffffffffffffffffffffff1673ffffffffffffffffffffffffffffffffffffffff16815260200190815260200160002060003373ffffffffffffffffffffffffffffffffffffffff1673ffffffffffffffffffffffffffffffffffffffff16815260200190815260200160002060008282540392505081905550816004600082825403925050819055508273ffffffffffffffffffffffffffffffffffffffff167fcc16f5dbb4873280815c1ee09dbd06736cffcc184412cf7a71a0fdb75d397ca5836040518082815260200191505060405180910390a26001905092915050565b60085481565b6000809054906101000a900473ffffffffffffffffffffffffffffffffffffffff1681565b60028054600181600116156101000203166002900480601f016020809104026020016040519081016040528092919081815260200182805460018160011615610100020316600290048015610ffd5780601f10610fd257610100808354040283529160200191610ffd565b820191906000526020600020905b815481529060010190602001808311610fe057829003601f168201915b505050505081565b60006008543481151561101457fe5b049050611022303383611436565b50565b611030338383611436565b5050565b60096020528060005260406000206000915054906101000a900460ff1681565b60008084905061106485856108bc565b156111c9578073ffffffffffffffffffffffffffffffffffffffff16638f4ffcb1338630876040518563ffffffff167c0100000000000000000000000000000000000000000000000000000000028152600401808573ffffffffffffffffffffffffffffffffffffffff1673ffffffffffffffffffffffffffffffffffffffff1681526020018481526020018373ffffffffffffffffffffffffffffffffffffffff1673ffffffffffffffffffffffffffffffffffffffff16815260200180602001828103825283818151815260200191508051906020019080838360005b8381101561115e578082015181840152602081019050611143565b50505050905090810190601f16801561118b5780820380516001836020036101000a031916815260200191505b5095505050505050600060405180830381600087803b15156111ac57600080fd5b6102c65a03f115156111bd57600080fd5b505050600191506111ca565b5b509392505050565b6006602052816000526040600020602052806000526040600020600091509150505481565b60075481023073ffffffffffffffffffffffffffffffffffffffff16311015151561122157600080fd5b61122c333083611436565b3373ffffffffffffffffffffffffffffffffffffffff166108fc60075483029081150290604051600060405180830381858888f19350505050151561127057600080fd5b50565b6000809054906101000a900473ffffffffffffffffffffffffffffffffffffffff1673ffffffffffffffffffffffffffffffffffffffff163373ffffffffffffffffffffffffffffffffffffffff161415156112ce57600080fd5b80600960008473ffffffffffffffffffffffffffffffffffffffff1673ffffffffffffffffffffffffffffffffffffffff16815260200190815260200160002060006101000a81548160ff0219169083151502179055507f48335238b4855f35377ed80f164e8c6f3c366e54ac00b96a6402d4a9814a03a58282604051808373ffffffffffffffffffffffffffffffffffffffff1673ffffffffffffffffffffffffffffffffffffffff168152602001821515151581526020019250505060405180910390a15050565b6000809054906101000a900473ffffffffffffffffffffffffffffffffffffffff1673ffffffffffffffffffffffffffffffffffffffff163373ffffffffffffffffffffffffffffffffffffffff161415156113f357600080fd5b806000806101000a81548173ffffffffffffffffffffffffffffffffffffffff021916908373ffffffffffffffffffffffffffffffffffffffff16021790555050565b60008273ffffffffffffffffffffffffffffffffffffffff161415151561145c57600080fd5b80600560008573ffffffffffffffffffffffffffffffffffffffff1673ffffffffffffffffffffffffffffffffffffffff168152602001908152602001600020541115156114a957600080fd5b600560008373ffffffffffffffffffffffffffffffffffffffff1673ffffffffffffffffffffffffffffffffffffffff1681526020019081526020016000205481600560008573ffffffffffffffffffffffffffffffffffffffff1673ffffffffffffffffffffffffffffffffffffffff168152602001908152602001600020540111151561153757600080fd5b600960008473ffffffffffffffffffffffffffffffffffffffff1673ffffffffffffffffffffffffffffffffffffffff16815260200190815260200160002060009054906101000a900460ff1615151561159057600080fd5b600960008373ffffffffffffffffffffffffffffffffffffffff1673ffffffffffffffffffffffffffffffffffffffff16815260200190815260200160002060009054906101000a900460ff161515156115e957600080fd5b80600560008573ffffffffffffffffffffffffffffffffffffffff1673ffffffffffffffffffffffffffffffffffffffff1681526020019081526020016000206000828254039250508190555080600560008473ffffffffffffffffffffffffffffffffffffffff1673ffffffffffffffffffffffffffffffffffffffff168152602001908152602001600020600082825401925050819055508173ffffffffffffffffffffffffffffffffffffffff168373ffffffffffffffffffffffffffffffffffffffff167fddf252ad1be2c89b69c2b068fc378daa952ba7f163c4a11628f55a4df523b3ef836040518082815260200191505060405180910390a35050505600a165627a7a7230582020076baf366b48ae3efe946da1db05dbec8f16ca79cd355e5240698ef178e41b0029a165627a7a723058208ff39e56e73bf06a4e956711140d4249128c78dcf7efbdcaf1665b4f1abfbd97002960606040526012600360006101000a81548160ff021916908360ff16021790555034156200002c57600080fd5b604051620019193803806200191983398101604052808051906020019091908051820191906020018051820191905050828282336000806101000a81548173ffffffffffffffffffffffffffffffffffffffff021916908373ffffffffffffffffffffffffffffffffffffffff160217905550600360009054906101000a900460ff1660ff16600a0a8302600481905550600454600560003373ffffffffffffffffffffffffffffffffffffffff1673ffffffffffffffffffffffffffffffffffffffff1681526020019081526020016000208190555081600190805190602001906200011b92919062000141565b5080600290805190602001906200013492919062000141565b50505050505050620001f0565b828054600181600116156101000203166002900490600052602060002090601f016020900481019282601f106200018457805160ff1916838001178555620001b5565b82800160010185558215620001b5579182015b82811115620001b457825182559160200191906001019062000197565b5b509050620001c49190620001c8565b5090565b620001ed91905b80821115620001e9576000816000905550600101620001cf565b5090565b90565b61171980620002006000396000f300606060405260043610610128576000357c0100000000000000000000000000000000000000000000000000000000900463ffffffff16806305fefda71461012d57806306fdde0314610159578063095ea7b3146101e757806318160ddd1461024157806323b872dd1461026a578063313ce567146102e357806342966c68146103125780634b7503341461034d57806370a082311461037657806379c65068146103c357806379cc6790146104055780638620410b1461045f5780638da5cb5b1461048857806395d89b41146104dd578063a6f2ae3a1461056b578063a9059cbb14610575578063b414d4b6146105b7578063cae9ca5114610608578063dd62ed3e146106a5578063e4849b3214610711578063e724529c14610734578063f2fde38b14610778575b600080fd5b341561013857600080fd5b61015760048080359060200190919080359060200190919050506107b1565b005b341561016457600080fd5b61016c61081e565b6040518080602001828103825283818151815260200191508051906020019080838360005b838110156101ac578082015181840152602081019050610191565b50505050905090810190601f1680156101d95780820380516001836020036101000a031916815260200191505b509250505060405180910390f35b34156101f257600080fd5b610227600480803573ffffffffffffffffffffffffffffffffffffffff169060200190919080359060200190919050506108bc565b604051808215151515815260200191505060405180910390f35b341561024c57600080fd5b610254610949565b6040518082815260200191505060405180910390f35b341561027557600080fd5b6102c9600480803573ffffffffffffffffffffffffffffffffffffffff1690602001909190803573ffffffffffffffffffffffffffffffffffffffff1690602001909190803590602001909190505061094f565b604051808215151515815260200191505060405180910390f35b34156102ee57600080fd5b6102f6610a7c565b604051808260ff1660ff16815260200191505060405180910390f35b341561031d57600080fd5b6103336004808035906020019091905050610a8f565b604051808215151515815260200191505060405180910390f35b341561035857600080fd5b610360610b93565b6040518082815260200191505060405180910390f35b341561038157600080fd5b6103ad600480803573ffffffffffffffffffffffffffffffffffffffff16906020019091905050610b99565b6040518082815260200191505060405180910390f35b34156103ce57600080fd5b610403600480803573ffffffffffffffffffffffffffffffffffffffff16906020019091908035906020019091905050610bb1565b005b341561041057600080fd5b610445600480803573ffffffffffffffffffffffffffffffffffffffff16906020019091908035906020019091905050610d22565b604051808215151515815260200191505060405180910390f35b341561046a57600080fd5b610472610f3c565b6040518082815260200191505060405180910390f35b341561049357600080fd5b61049b610f42565b604051808273ffffffffffffffffffffffffffffffffffffffff1673ffffffffffffffffffffffffffffffffffffffff16815260200191505060405180910390f35b34156104e857600080fd5b6104f0610f67565b6040518080602001828103825283818151815260200191508051906020019080838360005b83811015610530578082015181840152602081019050610515565b50505050905090810190601f16801561055d5780820380516001836020036101000a031916815260200191505b509250505060405180910390f35b610573611005565b005b341561058057600080fd5b6105b5600480803573ffffffffffffffffffffffffffffffffffffffff16906020019091908035906020019091905050611025565b005b34156105c257600080fd5b6105ee600480803573ffffffffffffffffffffffffffffffffffffffff16906020019091905050611034565b604051808215151515815260200191505060405180910390f35b341561061357600080fd5b61068b600480803573ffffffffffffffffffffffffffffffffffffffff1690602001909190803590602001909190803590602001908201803590602001908080601f01602080910402602001604051908101604052809392919081815260200183838082843782019150505050505091905050611054565b604051808215151515815260200191505060405180910390f35b34156106b057600080fd5b6106fb600480803573ffffffffffffffffffffffffffffffffffffffff1690602001909190803573ffffffffffffffffffffffffffffffffffffffff169060200190919050506111d2565b6040518082815260200191505060405180910390f35b341561071c57600080fd5b61073260048080359060200190919050506111f7565b005b341561073f57600080fd5b610776600480803573ffffffffffffffffffffffffffffffffffffffff169060200190919080351515906020019091905050611273565b005b341561078357600080fd5b6107af600480803573ffffffffffffffffffffffffffffffffffffffff16906020019091905050611398565b005b6000809054906101000a900473ffffffffffffffffffffffffffffffffffffffff1673ffffffffffffffffffffffffffffffffffffffff163373ffffffffffffffffffffffffffffffffffffffff1614151561080c57600080fd5b81600781905550806008819055505050565b60018054600181600116156101000203166002900480601f0160208091040260200160405190810160405280929190818152602001828054600181600116156101000203166002900480156108b45780601f10610889576101008083540402835291602001916108b4565b820191906000526020600020905b81548152906001019060200180831161089757829003601f168201915b505050505081565b600081600660003373ffffffffffffffffffffffffffffffffffffffff1673ffffffffffffffffffffffffffffffffffffffff16815260200190815260200160002060008573ffffffffffffffffffffffffffffffffffffffff1673ffffffffffffffffffffffffffffffffffffffff168152602001908152602001600020819055506001905092915050565b60045481565b6000600660008573ffffffffffffffffffffffffffffffffffffffff1673ffffffffffffffffffffffffffffffffffffffff16815260200190815260200160002060003373ffffffffffffffffffffffffffffffffffffffff1673ffffffffffffffffffffffffffffffffffffffff1681526020019081526020016000205482111515156109dc57600080fd5b81600660008673ffffffffffffffffffffffffffffffffffffffff1673ffffffffffffffffffffffffffffffffffffffff16815260200190815260200160002060003373ffffffffffffffffffffffffffffffffffffffff1673ffffffffffffffffffffffffffffffffffffffff16815260200190815260200160002060008282540392505081905550610a71848484611436565b600190509392505050565b600360009054906101000a900460ff1681565b600081600560003373ffffffffffffffffffffffffffffffffffffffff1673ffffffffffffffffffffffffffffffffffffffff1681526020019081526020016000205410151515610adf57600080fd5b81600560003373ffffffffffffffffffffffffffffffffffffffff1673ffffffffffffffffffffffffffffffffffffffff16815260200190815260200160002060008282540392505081905550816004600082825403925050819055503373ffffffffffffffffffffffffffffffffffffffff167fcc16f5dbb4873280815c1ee09dbd06736cffcc184412cf7a71a0fdb75d397ca5836040518082815260200191505060405180910390a260019050919050565b60075481565b60056020528060005260406000206000915090505481565b6000809054906101000a900473ffffffffffffffffffffffffffffffffffffffff1673ffffffffffffffffffffffffffffffffffffffff163373ffffffffffffffffffffffffffffffffffffffff16141515610c0c57600080fd5b80600560008473ffffffffffffffffffffffffffffffffffffffff1673ffffffffffffffffffffffffffffffffffffffff16815260200190815260200160002060008282540192505081905550806004600082825401925050819055503073ffffffffffffffffffffffffffffffffffffffff1660007fddf252ad1be2c89b69c2b068fc378daa952ba7f163c4a11628f55a4df523b3ef836040518082815260200191505060405180910390a38173ffffffffffffffffffffffffffffffffffffffff163073ffffffffffffffffffffffffffffffffffffffff167fddf252ad1be2c89b69c2b068fc378daa952ba7f163c4a11628f55a4df523b3ef836040518082815260200191505060405180910390a35050565b600081600560008573ffffffffffffffffffffffffffffffffffffffff1673ffffffffffffffffffffffffffffffffffffffff1681526020019081526020016000205410151515610d7257600080fd5b600660008473ffffffffffffffffffffffffffffffffffffffff1673ffffffffffffffffffffffffffffffffffffffff16815260200190815260200160002060003373ffffffffffffffffffffffffffffffffffffffff1673ffffffffffffffffffffffffffffffffffffffff168152602001908152602001600020548211151515610dfd57600080fd5b81600560008573ffffffffffffffffffffffffffffffffffffffff1673ffffffffffffffffffffffffffffffffffffffff1681526020019081526020016000206000828254039250508190555081600660008573ffffffffffffffffffffffffffffffffffffffff1673ffffffffffffffffffffffffffffffffffffffff16815260200190815260200160002060003373ffffffffffffffffffffffffffffffffffffffff1673ffffffffffffffffffffffffffffffffffffffff16815260200190815260200160002060008282540392505081905550816004600082825403925050819055508273ffffffffffffffffffffffffffffffffffffffff167fcc16f5dbb4873280815c1ee09dbd06736cffcc184412cf7a71a0fdb75d397ca5836040518082815260200191505060405180910390a26001905092915050565b60085481565b6000809054906101000a900473ffffffffffffffffffffffffffffffffffffffff1681565b60028054600181600116156101000203166002900480601f016020809104026020016040519081016040528092919081815260200182805460018160011615610100020316600290048015610ffd5780601f10610fd257610100808354040283529160200191610ffd565b820191906000526020600020905b815481529060010190602001808311610fe057829003601f168201915b505050505081565b60006008543481151561101457fe5b049050611022303383611436565b50565b611030338383611436565b5050565b60096020528060005260406000206000915054906101000a900460ff1681565b60008084905061106485856108bc565b156111c9578073ffffffffffffffffffffffffffffffffffffffff16638f4ffcb1338630876040518563ffffffff167c0100000000000000000000000000000000000000000000000000000000028152600401808573ffffffffffffffffffffffffffffffffffffffff1673ffffffffffffffffffffffffffffffffffffffff1681526020018481526020018373ffffffffffffffffffffffffffffffffffffffff1673ffffffffffffffffffffffffffffffffffffffff16815260200180602001828103825283818151815260200191508051906020019080838360005b8381101561115e578082015181840152602081019050611143565b50505050905090810190601f16801561118b5780820380516001836020036101000a031916815260200191505b5095505050505050600060405180830381600087803b15156111ac57600080fd5b6102c65a03f115156111bd57600080fd5b505050600191506111ca565b5b509392505050565b6006602052816000526040600020602052806000526040600020600091509150505481565b60075481023073ffffffffffffffffffffffffffffffffffffffff16311015151561122157600080fd5b61122c333083611436565b3373ffffffffffffffffffffffffffffffffffffffff166108fc60075483029081150290604051600060405180830381858888f19350505050151561127057600080fd5b50565b6000809054906101000a900473ffffffffffffffffffffffffffffffffffffffff1673ffffffffffffffffffffffffffffffffffffffff163373ffffffffffffffffffffffffffffffffffffffff161415156112ce57600080fd5b80600960008473ffffffffffffffffffffffffffffffffffffffff1673ffffffffffffffffffffffffffffffffffffffff16815260200190815260200160002060006101000a81548160ff0219169083151502179055507f48335238b4855f35377ed80f164e8c6f3c366e54ac00b96a6402d4a9814a03a58282604051808373ffffffffffffffffffffffffffffffffffffffff1673ffffffffffffffffffffffffffffffffffffffff168152602001821515151581526020019250505060405180910390a15050565b6000809054906101000a900473ffffffffffffffffffffffffffffffffffffffff1673ffffffffffffffffffffffffffffffffffffffff163373ffffffffffffffffffffffffffffffffffffffff161415156113f357600080fd5b806000806101000a81548173ffffffffffffffffffffffffffffffffffffffff021916908373ffffffffffffffffffffffffffffffffffffffff16021790555050565b60008273ffffffffffffffffffffffffffffffffffffffff161415151561145c57600080fd5b80600560008573ffffffffffffffffffffffffffffffffffffffff1673ffffffffffffffffffffffffffffffffffffffff168152602001908152602001600020541115156114a957600080fd5b600560008373ffffffffffffffffffffffffffffffffffffffff1673ffffffffffffffffffffffffffffffffffffffff1681526020019081526020016000205481600560008573ffffffffffffffffffffffffffffffffffffffff1673ffffffffffffffffffffffffffffffffffffffff168152602001908152602001600020540111151561153757600080fd5b600960008473ffffffffffffffffffffffffffffffffffffffff1673ffffffffffffffffffffffffffffffffffffffff16815260200190815260200160002060009054906101000a900460ff1615151561159057600080fd5b600960008373ffffffffffffffffffffffffffffffffffffffff1673ffffffffffffffffffffffffffffffffffffffff16815260200190815260200160002060009054906101000a900460ff161515156115e957600080fd5b80600560008573ffffffffffffffffffffffffffffffffffffffff1673ffffffffffffffffffffffffffffffffffffffff1681526020019081526020016000206000828254039250508190555080600560008473ffffffffffffffffffffffffffffffffffffffff1673ffffffffffffffffffffffffffffffffffffffff168152602001908152602001600020600082825401925050819055508173ffffffffffffffffffffffffffffffffffffffff168373ffffffffffffffffffffffffffffffffffffffff167fddf252ad1be2c89b69c2b068fc378daa952ba7f163c4a11628f55a4df523b3ef836040518082815260200191505060405180910390a35050505600a165627a7a7230582020076baf366b48ae3efe946da1db05dbec8f16ca79cd355e5240698ef178e41b0029",
  "source": "pragma solidity ^0.4.15;\n\nimport '../VocalToken.sol';\nimport './SafeMath.sol';\n\n/**\n * @title Crowdsale\n * @dev Crowdsale is a base contract for managing a token crowdsale.\n * Crowdsales have a start and end timestamps, where investors can make\n * token purchases and the crowdsale will assign them tokens based\n * on a token per ETH rate. Funds collected are forwarded to a wallet\n * as they arrive.\n */\ncontract Crowdsale {\n  using SafeMath for uint256;\n\n  // Initial quantity for the token to be crowdsaled (VOC).\n  uint constant INITIAL_QUANTITY = 10000000;\n\n  // The token being sold\n  VocalToken public token;\n\n  // start and end timestamps where investments are allowed (both inclusive)\n  uint256 public startTime;\n  uint256 public endTime;\n\n  // address where funds are collected\n  address public wallet;\n\n  // how many token units a buyer gets per wei\n  uint256 public rate;\n\n  // amount of raised money in wei\n  uint256 public weiRaised;\n\n  /**\n   * event for token purchase logging\n   * @param purchaser who paid for the tokens\n   * @param beneficiary who got the tokens\n   * @param value weis paid for purchase\n   * @param amount amount of tokens purchased\n   */\n  event TokenPurchase(address indexed purchaser, address indexed beneficiary, uint256 value, uint256 amount);\n\n\n  function Crowdsale(uint256 _startTime, uint256 _endTime, uint256 _rate, address _wallet) {\n    require(_startTime >= now);\n    require(_endTime >= _startTime);\n    require(_rate > 0);\n    require(_wallet != 0x0);\n\n    token = createTokenContract();\n    startTime = _startTime;\n    endTime = _endTime;\n    rate = _rate;\n    wallet = _wallet;\n  }\n\n  // creates the token to be sold.\n  // override this method to have crowdsale of a specific mintable token.\n  function createTokenContract() internal returns (VocalToken) {\n    return new VocalToken(INITIAL_QUANTITY, \"VocalToken\", \"VOC\");\n  }\n\n\n  // fallback function can be used to buy tokens\n  function () payable {\n    buyTokens(msg.sender);\n  }\n\n  // low level token purchase function\n  function buyTokens(address beneficiary) public payable {\n    require(beneficiary != 0x0);\n    require(validPurchase());\n\n    uint256 weiAmount = msg.value;\n\n    // calculate token amount to be created\n    uint256 tokens = weiAmount.mul(rate);\n\n    // update state\n    weiRaised = weiRaised.add(weiAmount);\n\n    // Commented out below mint method because the token is not meant to be mintable.\n    // token.mint(beneficiary, tokens);\n\n    TokenPurchase(msg.sender, beneficiary, weiAmount, tokens);\n\n    forwardFunds();\n  }\n\n  // send ether to the fund collection wallet\n  // override to create custom fund forwarding mechanisms\n  function forwardFunds() internal {\n    wallet.transfer(msg.value);\n  }\n\n  // @return true if the transaction can buy tokens\n  function validPurchase() internal constant returns (bool) {\n    bool withinPeriod = now >= startTime && now <= endTime;\n    bool nonZeroPurchase = msg.value != 0;\n    return withinPeriod && nonZeroPurchase;\n  }\n\n  // @return true if crowdsale event has ended\n  function hasEnded() public constant returns (bool) {\n    return now > endTime;\n  }\n\n\n}\n",
  "sourcePath": "/Users/anupvasudevan/Code/vocal/vocalcontract/contracts/base/Crowdsale.sol",
  "compiler": {
    "name": "solc",
    "version": "0.4.18+commit.9cf6e910.Emscripten.clang"
  },
  "schemaVersion": "1.0.1",
  "updatedAt": "2017-11-26T20:44:12.784Z"
}